{
  "contractName": "Votacion",
  "abi": [
    {
      "inputs": [],
      "stateMutability": "nonpayable",
      "type": "constructor"
    },
    {
      "anonymous": false,
      "inputs": [
        {
          "indexed": false,
          "internalType": "uint256",
          "name": "idEleccion",
          "type": "uint256"
        },
        {
          "indexed": false,
          "internalType": "string",
          "name": "fecha",
          "type": "string"
        },
        {
          "indexed": false,
          "internalType": "bool",
          "name": "finished",
          "type": "bool"
        }
      ],
      "name": "EleccionData",
      "type": "event"
    },
    {
      "anonymous": false,
      "inputs": [
        {
          "indexed": false,
          "internalType": "uint256",
          "name": "id_lista",
          "type": "uint256"
        },
        {
          "indexed": false,
          "internalType": "uint256",
          "name": "id_eleccion",
          "type": "uint256"
        },
        {
          "indexed": false,
          "internalType": "string",
          "name": "agencia",
          "type": "string"
        },
        {
          "indexed": false,
          "internalType": "string",
          "name": "nombre",
          "type": "string"
        },
        {
          "indexed": false,
          "internalType": "uint256",
          "name": "votos",
          "type": "uint256"
        }
      ],
      "name": "ListaData",
      "type": "event"
    },
    {
      "anonymous": false,
      "inputs": [
        {
          "indexed": false,
          "internalType": "uint256",
          "name": "datetime",
          "type": "uint256"
        },
        {
          "indexed": false,
          "internalType": "address",
          "name": "socio",
          "type": "address"
        },
        {
          "indexed": false,
          "internalType": "uint256",
          "name": "id_lista",
          "type": "uint256"
        },
        {
          "indexed": false,
          "internalType": "bool",
          "name": "voted",
          "type": "bool"
        }
      ],
      "name": "VotoData",
      "type": "event"
    },
    {
      "anonymous": false,
      "inputs": [
        {
          "indexed": false,
          "internalType": "address",
          "name": "_wallet",
          "type": "address"
        }
      ],
      "name": "dataOwner",
      "type": "event"
    },
    {
      "inputs": [
        {
          "internalType": "uint256",
          "name": "",
          "type": "uint256"
        }
      ],
      "name": "elecciones",
      "outputs": [
        {
          "internalType": "uint256",
          "name": "idEleccion",
          "type": "uint256"
        },
        {
          "internalType": "string",
          "name": "fecha",
          "type": "string"
        },
        {
          "internalType": "bool",
          "name": "finished",
          "type": "bool"
        }
      ],
      "stateMutability": "view",
      "type": "function",
      "constant": true
    },
    {
      "inputs": [
        {
          "internalType": "uint256",
          "name": "_idEleccion",
          "type": "uint256"
        },
        {
          "internalType": "string",
          "name": "_fecha",
          "type": "string"
        }
      ],
      "name": "agregarEleccion",
      "outputs": [],
      "stateMutability": "nonpayable",
      "type": "function"
    },
    {
      "inputs": [
        {
          "internalType": "uint256",
          "name": "_idEleccion",
          "type": "uint256"
        }
      ],
      "name": "finishEleccion",
      "outputs": [],
      "stateMutability": "nonpayable",
      "type": "function"
    },
    {
      "inputs": [
        {
          "internalType": "uint256",
          "name": "_idLista",
          "type": "uint256"
        },
        {
          "internalType": "uint256",
          "name": "_idEleccion",
          "type": "uint256"
        },
        {
          "internalType": "string",
          "name": "_agencia",
          "type": "string"
        },
        {
          "internalType": "string",
          "name": "_nombre",
          "type": "string"
        }
      ],
      "name": "agregarLista",
      "outputs": [],
      "stateMutability": "nonpayable",
      "type": "function"
    },
    {
      "inputs": [
        {
          "internalType": "uint256",
          "name": "_idLista",
          "type": "uint256"
        },
        {
          "internalType": "uint256",
          "name": "_idEleccion",
          "type": "uint256"
        }
      ],
      "name": "verLista",
      "outputs": [
        {
          "components": [
            {
              "internalType": "uint256",
              "name": "id_lista",
              "type": "uint256"
            },
            {
              "internalType": "uint256",
              "name": "id_eleccion",
              "type": "uint256"
            },
            {
              "internalType": "string",
              "name": "agencia",
              "type": "string"
            },
            {
              "internalType": "string",
              "name": "nombre",
              "type": "string"
            },
            {
              "internalType": "uint256",
              "name": "votos",
              "type": "uint256"
            }
          ],
          "internalType": "struct Votacion.Lista",
          "name": "",
          "type": "tuple"
        }
      ],
      "stateMutability": "view",
      "type": "function",
      "constant": true
    },
    {
      "inputs": [
        {
          "internalType": "uint256",
          "name": "_idLista",
          "type": "uint256"
        },
        {
          "internalType": "uint256",
          "name": "_idEleccion",
          "type": "uint256"
        }
      ],
      "name": "sufragar",
      "outputs": [],
      "stateMutability": "nonpayable",
      "type": "function"
    }
  ],
  "bytecode": "0x608060405234801561001057600080fd5b50336000806101000a81548173ffffffffffffffffffffffffffffffffffffffff021916908373ffffffffffffffffffffffffffffffffffffffff160217905550611641806100606000396000f3fe608060405234801561001057600080fd5b50600436106100625760003560e01c80632567369b14610067578063326f758e146100995780634e23ad0c146100b5578063bf610a28146100d1578063d0c0dedb14610101578063d961cf501461011d575b600080fd5b610081600480360381019061007c9190610b93565b610139565b60405161009093929190610c83565b60405180910390f35b6100b360048036038101906100ae9190610df6565b6101f8565b005b6100cf60048036038101906100ca9190610e52565b610308565b005b6100eb60048036038101906100e69190610ef1565b610504565b6040516100f89190611007565b60405180910390f35b61011b60048036038101906101169190610b93565b610688565b005b61013760048036038101906101329190610ef1565b610713565b005b600160205280600052604060002060009150905080600001549080600101805461016290611058565b80601f016020809104026020016040519081016040528092919081815260200182805461018e90611058565b80156101db5780601f106101b0576101008083540402835291602001916101db565b820191906000526020600020905b8154815290600101906020018083116101be57829003601f168201915b5050505050908060020160009054906101000a900460ff16905083565b816000600160008381526020019081526020016000206000015414610252576040517f08c379a0000000000000000000000000000000000000000000000000000000008152600401610249906110fc565b60405180910390fd5b82600160008581526020019081526020016000206000018190555081600160008581526020019081526020016000206001019080519060200190610297929190610a77565b5060006001600085815260200190815260200160002060020160006101000a81548160ff0219169083151502179055507fd36cc98edb66ddf76944b3701ff936dbf41e74796c1c7d9b00ed1bff6d7d42e0838360006040516102fb93929190610c83565b60405180910390a1505050565b8383600082141561034e576040517f08c379a00000000000000000000000000000000000000000000000000000000081526004016103459061118e565b60405180910390fd5b600060016000838152602001908152602001600020600301600084815260200190815260200160002060000154146103bb576040517f08c379a00000000000000000000000000000000000000000000000000000000081526004016103b2906111fa565b60405180910390fd5b6040518060a0016040528087815260200186815260200185815260200184815260200160008152506001600087815260200190815260200160002060030160008881526020019081526020016000206000820151816000015560208201518160010155604082015181600201908051906020019061043a929190610a77565b506060820151816003019080519060200190610457929190610a77565b50608082015181600401559050507fb4ad1879a04e08954d814b6cb45c6aab02b5ff6daae0c448ea607e71b5fa109686868686600060405161049d95949392919061125f565b60405180910390a17f4d627d88fbbe098d420295e150e5815d73220d6e0b71604eeea594522629a00c60008054906101000a900473ffffffffffffffffffffffffffffffffffffffff166040516104f49190611301565b60405180910390a1505050505050565b61050c610afd565b6001600083815260200190815260200160002060030160008481526020019081526020016000206040518060a0016040529081600082015481526020016001820154815260200160028201805461056290611058565b80601f016020809104026020016040519081016040528092919081815260200182805461058e90611058565b80156105db5780601f106105b0576101008083540402835291602001916105db565b820191906000526020600020905b8154815290600101906020018083116105be57829003601f168201915b505050505081526020016003820180546105f490611058565b80601f016020809104026020016040519081016040528092919081815260200182805461062090611058565b801561066d5780601f106106425761010080835404028352916020019161066d565b820191906000526020600020905b81548152906001019060200180831161065057829003601f168201915b50505050508152602001600482015481525050905092915050565b600060016000838152602001908152602001600020905060018160020160006101000a81548160ff0219169083151502179055507fd36cc98edb66ddf76944b3701ff936dbf41e74796c1c7d9b00ed1bff6d7d42e08160000154826001018360020160009054906101000a900460ff16604051610707939291906113b1565b60405180910390a15050565b338160006001600083815260200190815260200160002060040160008473ffffffffffffffffffffffffffffffffffffffff1673ffffffffffffffffffffffffffffffffffffffff16815260200190815260200160002090508060030160009054906101000a900460ff16156107be576040517f08c379a00000000000000000000000000000000000000000000000000000000081526004016107b59061143b565b60405180910390fd5b60006001600084815260200190815260200160002090508060020160009054906101000a900460ff1615610827576040517f08c379a000000000000000000000000000000000000000000000000000000000815260040161081e906114cd565b60405180910390fd5b600042905060405180608001604052808281526020013373ffffffffffffffffffffffffffffffffffffffff168152602001888152602001600115158152506001600088815260200190815260200160002060040160003373ffffffffffffffffffffffffffffffffffffffff1673ffffffffffffffffffffffffffffffffffffffff1681526020019081526020016000206000820151816000015560208201518160010160006101000a81548173ffffffffffffffffffffffffffffffffffffffff021916908373ffffffffffffffffffffffffffffffffffffffff1602179055506040820151816002015560608201518160030160006101000a81548160ff021916908315150217905550905050600060016000888152602001908152602001600020600301600089815260200190815260200160002090508060040160008154809291906109779061151c565b91905055507fb4ad1879a04e08954d814b6cb45c6aab02b5ff6daae0c448ea607e71b5fa109681600001548260010154836002018460030185600401546040516109c5959493929190611565565b60405180910390a17fc04b84d18192760cf1009b6ef1937fbb8991a60e3b0a6d0240d5521c2b1cd61682338a600160008c815260200190815260200160002060040160003373ffffffffffffffffffffffffffffffffffffffff1673ffffffffffffffffffffffffffffffffffffffff16815260200190815260200160002060030160009054906101000a900460ff16604051610a6594939291906115c6565b60405180910390a15050505050505050565b828054610a8390611058565b90600052602060002090601f016020900481019282610aa55760008555610aec565b82601f10610abe57805160ff1916838001178555610aec565b82800160010185558215610aec579182015b82811115610aeb578251825591602001919060010190610ad0565b5b509050610af99190610b2c565b5090565b6040518060a0016040528060008152602001600081526020016060815260200160608152602001600081525090565b5b80821115610b45576000816000905550600101610b2d565b5090565b6000604051905090565b600080fd5b600080fd5b6000819050919050565b610b7081610b5d565b8114610b7b57600080fd5b50565b600081359050610b8d81610b67565b92915050565b600060208284031215610ba957610ba8610b53565b5b6000610bb784828501610b7e565b91505092915050565b610bc981610b5d565b82525050565b600081519050919050565b600082825260208201905092915050565b60005b83811015610c09578082015181840152602081019050610bee565b83811115610c18576000848401525b50505050565b6000601f19601f8301169050919050565b6000610c3a82610bcf565b610c448185610bda565b9350610c54818560208601610beb565b610c5d81610c1e565b840191505092915050565b60008115159050919050565b610c7d81610c68565b82525050565b6000606082019050610c986000830186610bc0565b8181036020830152610caa8185610c2f565b9050610cb96040830184610c74565b949350505050565b600080fd5b600080fd5b7f4e487b7100000000000000000000000000000000000000000000000000000000600052604160045260246000fd5b610d0382610c1e565b810181811067ffffffffffffffff82111715610d2257610d21610ccb565b5b80604052505050565b6000610d35610b49565b9050610d418282610cfa565b919050565b600067ffffffffffffffff821115610d6157610d60610ccb565b5b610d6a82610c1e565b9050602081019050919050565b82818337600083830152505050565b6000610d99610d9484610d46565b610d2b565b905082815260208101848484011115610db557610db4610cc6565b5b610dc0848285610d77565b509392505050565b600082601f830112610ddd57610ddc610cc1565b5b8135610ded848260208601610d86565b91505092915050565b60008060408385031215610e0d57610e0c610b53565b5b6000610e1b85828601610b7e565b925050602083013567ffffffffffffffff811115610e3c57610e3b610b58565b5b610e4885828601610dc8565b9150509250929050565b60008060008060808587031215610e6c57610e6b610b53565b5b6000610e7a87828801610b7e565b9450506020610e8b87828801610b7e565b935050604085013567ffffffffffffffff811115610eac57610eab610b58565b5b610eb887828801610dc8565b925050606085013567ffffffffffffffff811115610ed957610ed8610b58565b5b610ee587828801610dc8565b91505092959194509250565b60008060408385031215610f0857610f07610b53565b5b6000610f1685828601610b7e565b9250506020610f2785828601610b7e565b9150509250929050565b610f3a81610b5d565b82525050565b600082825260208201905092915050565b6000610f5c82610bcf565b610f668185610f40565b9350610f76818560208601610beb565b610f7f81610c1e565b840191505092915050565b600060a083016000830151610fa26000860182610f31565b506020830151610fb56020860182610f31565b5060408301518482036040860152610fcd8282610f51565b91505060608301518482036060860152610fe78282610f51565b9150506080830151610ffc6080860182610f31565b508091505092915050565b600060208201905081810360008301526110218184610f8a565b905092915050565b7f4e487b7100000000000000000000000000000000000000000000000000000000600052602260045260246000fd5b6000600282049050600182168061107057607f821691505b6020821081141561108457611083611029565b5b50919050565b7f4c6120656c656363696f6e20686120696e73657274617220796120657869737460008201527f6500000000000000000000000000000000000000000000000000000000000000602082015250565b60006110e6602183610bda565b91506110f18261108a565b604082019050919050565b60006020820190508181036000830152611115816110d9565b9050919050565b7f456c206964206465206c61206c6973746120646562652073657220646966657260008201527f656e746520646520300000000000000000000000000000000000000000000000602082015250565b6000611178602983610bda565b91506111838261111c565b604082019050919050565b600060208201905081810360008301526111a78161116b565b9050919050565b7f4c61206c6973746120686120696e736572746172207961206578697374650000600082015250565b60006111e4601e83610bda565b91506111ef826111ae565b602082019050919050565b60006020820190508181036000830152611213816111d7565b9050919050565b6000819050919050565b6000819050919050565b600061124961124461123f8461121a565b611224565b610b5d565b9050919050565b6112598161122e565b82525050565b600060a0820190506112746000830188610bc0565b6112816020830187610bc0565b81810360408301526112938186610c2f565b905081810360608301526112a78185610c2f565b90506112b66080830184611250565b9695505050505050565b600073ffffffffffffffffffffffffffffffffffffffff82169050919050565b60006112eb826112c0565b9050919050565b6112fb816112e0565b82525050565b600060208201905061131660008301846112f2565b92915050565b60008190508160005260206000209050919050565b6000815461133e81611058565b6113488186610bda565b945060018216600081146113635760018114611375576113a8565b60ff19831686526020860193506113a8565b61137e8561131c565b60005b838110156113a057815481890152600182019150602081019050611381565b808801955050505b50505092915050565b60006060820190506113c66000830186610bc0565b81810360208301526113d88185611331565b90506113e76040830184610c74565b949350505050565b7f537520766f746f207961206861207369646f207265676973747261646f000000600082015250565b6000611425601d83610bda565b9150611430826113ef565b602082019050919050565b6000602082019050818103600083015261145481611418565b9050919050565b7f456c2070726f6365736f20646520656c656363696f6e20612063756c6d696e6160008201527f646f2c206e6f207365206163657074616e206d617320766f746f730000000000602082015250565b60006114b7603b83610bda565b91506114c28261145b565b604082019050919050565b600060208201905081810360008301526114e6816114aa565b9050919050565b7f4e487b7100000000000000000000000000000000000000000000000000000000600052601160045260246000fd5b600061152782610b5d565b91507fffffffffffffffffffffffffffffffffffffffffffffffffffffffffffffffff82141561155a576115596114ed565b5b600182019050919050565b600060a08201905061157a6000830188610bc0565b6115876020830187610bc0565b81810360408301526115998186611331565b905081810360608301526115ad8185611331565b90506115bc6080830184610bc0565b9695505050505050565b60006080820190506115db6000830187610bc0565b6115e860208301866112f2565b6115f56040830185610bc0565b6116026060830184610c74565b9594505050505056fea264697066735822122091dc6e58f3a46c54f0913b1e597f230ec0b7ef24a5b41249a8a1f04061a3bd4d64736f6c634300080c0033",
  "immutableReferences": {},
  "source": "// SPDX-License-Identifier: GPL-3.0\npragma solidity >=0.7.0 <0.9.0;\n\ncontract Votacion {\n\n    address private walletOwner;\n\n    struct Voto{\n        uint256 datetime;\n        address socio;\n        uint256 id_lista;\n        bool voted;\n    }\n\n    event VotoData(\n        uint256 datetime,\n        address socio,\n        uint256 id_lista,\n        bool voted\n    );\n\n    struct Lista {\n        uint256 id_lista;\n        uint256 id_eleccion;\n        string agencia;\n        string nombre;\n        uint256 votos;\n    }\n\n    event ListaData (\n        uint256 id_lista,\n        uint256 id_eleccion,\n        string agencia,\n        string nombre,\n        uint256 votos\n    );\n\n    struct Eleccion {\n        uint256 idEleccion;\n        string fecha;\n        bool finished;\n        mapping (uint256 => Lista) listas;\n        mapping (address => Voto) votos;\n    }\n\n    event EleccionData (\n        uint256 idEleccion,\n        string fecha,\n        bool finished   \n    );\n\n    event dataOwner (address _wallet); // evento para saber la direccion de quien ejecuta el smart contract\n\n    mapping (uint256 => Eleccion) public elecciones;\n\n    constructor() {\n        walletOwner = msg.sender;\n    }\n\n    modifier duplicateKeyLista(uint256 _idLista, uint256 _idEleccion){\n        require(\n            _idLista != 0, \n            'El id de la lista debe ser diferente de 0');\n        require (\n            elecciones[_idEleccion].listas[_idLista].id_lista == 0,     \n            'La lista ha insertar ya existe');\n        _;\n    }\n\n    modifier duplicateVote(address _wallet, uint256 _idEleccion) {\n        Voto storage voto = elecciones[_idEleccion].votos[_wallet];\n        require (\n            !voto.voted, \n            'Su voto ya ha sido registrado');\n        \n        Eleccion storage election = elecciones[_idEleccion];\n        require(\n            !election.finished,\n            'El proceso de eleccion a culminado, no se aceptan mas votos'\n        );  \n        _;\n    }\n\n    modifier duplicateEleccion (uint256 _idEleccion){\n        require (\n            elecciones[_idEleccion].idEleccion == 0,     \n            'La eleccion ha insertar ya existe');\n        _;\n    }\n\n    function agregarEleccion (uint256 _idEleccion, string memory _fecha) \n    public duplicateEleccion(_idEleccion){\n        \n        elecciones[_idEleccion].idEleccion = _idEleccion;\n        elecciones[_idEleccion].fecha = _fecha;\n        elecciones[_idEleccion].finished = false;\n\n        emit EleccionData(_idEleccion, _fecha, false);\n    }\n\n    function finishEleccion (uint256 _idEleccion) public {\n        Eleccion storage eleccion = elecciones[_idEleccion];\n        eleccion.finished = true;\n\n        emit EleccionData(eleccion.idEleccion, eleccion.fecha, eleccion.finished);\n    }\n\n    function agregarLista(\n        uint256 _idLista, \n        uint256 _idEleccion,\n        string memory _agencia, \n        string memory _nombre)\n        public duplicateKeyLista(_idLista,_idEleccion)\n    {\n        elecciones[_idEleccion].listas[_idLista] = \n            Lista(_idLista,_idEleccion,_agencia,_nombre,0);\n\n        emit ListaData(_idLista, _idEleccion, _agencia, _nombre, 0);\n        emit dataOwner(walletOwner);\n    }\n\n    function verLista(uint256 _idLista, uint256 _idEleccion) \n        public view returns (Lista memory)\n    {\n        return(elecciones[_idEleccion].listas[_idLista]);\n    }\n\n    function sufragar (uint256 _idLista, uint256 _idEleccion) \n        public duplicateVote(msg.sender, _idEleccion) \n    {\n        uint256 _datetime = block.timestamp;\n\n        elecciones[_idEleccion].votos[msg.sender] = Voto(\n            _datetime,\n            msg.sender,\n            _idLista,\n            true\n        );\n\n        Lista storage _lista = elecciones[_idEleccion].listas[_idLista];\n        _lista.votos++;\n\n        emit ListaData (\n            _lista.id_lista,\n            _lista.id_eleccion, \n            _lista.agencia, \n            _lista.nombre, \n            _lista.votos\n        ); \n\n        emit VotoData (\n            _datetime, \n            msg.sender, \n            _idLista, \n            elecciones[_idEleccion].votos[msg.sender].voted\n        );\n    }\n}",
  "sourcePath": "/home/ayrton14/node-js-projects/prototipo-votaciones-dapp/contracts/Votacion.sol",
  "compiler": {
    "name": "solc",
    "version": "0.8.12+commit.f00d7308.Emscripten.clang"
  },
  "schemaVersion": "3.4.6",
  "updatedAt": "2022-11-14T16:00:43.658Z",
  "networkType": "ethereum",
  "devdoc": {
    "kind": "dev",
    "methods": {},
    "version": 1
  },
  "userdoc": {
    "kind": "user",
    "methods": {},
    "version": 1
  }
}