{
  "contractName": "VoteToken",
  "abi": [
    {
      "inputs": [
        {
          "internalType": "uint256",
          "name": "initialSupply",
          "type": "uint256"
        }
      ],
      "stateMutability": "nonpayable",
      "type": "constructor"
    },
    {
      "anonymous": false,
      "inputs": [
        {
          "indexed": true,
          "internalType": "address",
          "name": "owner",
          "type": "address"
        },
        {
          "indexed": true,
          "internalType": "address",
          "name": "spender",
          "type": "address"
        },
        {
          "indexed": false,
          "internalType": "uint256",
          "name": "value",
          "type": "uint256"
        }
      ],
      "name": "Approval",
      "type": "event"
    },
    {
      "anonymous": false,
      "inputs": [
        {
          "indexed": false,
          "internalType": "uint16",
          "name": "_idEleccion",
          "type": "uint16"
        },
        {
          "indexed": false,
          "internalType": "string",
          "name": "_fecha",
          "type": "string"
        },
        {
          "indexed": false,
          "internalType": "bool",
          "name": "_finished",
          "type": "bool"
        }
      ],
      "name": "EleccionData",
      "type": "event"
    },
    {
      "anonymous": false,
      "inputs": [
        {
          "indexed": true,
          "internalType": "address",
          "name": "from",
          "type": "address"
        },
        {
          "indexed": true,
          "internalType": "address",
          "name": "to",
          "type": "address"
        },
        {
          "indexed": false,
          "internalType": "uint256",
          "name": "value",
          "type": "uint256"
        }
      ],
      "name": "Transfer",
      "type": "event"
    },
    {
      "anonymous": false,
      "inputs": [
        {
          "indexed": false,
          "internalType": "address",
          "name": "_wallet",
          "type": "address"
        },
        {
          "indexed": false,
          "internalType": "bool",
          "name": "voted",
          "type": "bool"
        }
      ],
      "name": "VoterData",
      "type": "event"
    },
    {
      "inputs": [
        {
          "internalType": "address",
          "name": "owner",
          "type": "address"
        },
        {
          "internalType": "address",
          "name": "spender",
          "type": "address"
        }
      ],
      "name": "allowance",
      "outputs": [
        {
          "internalType": "uint256",
          "name": "",
          "type": "uint256"
        }
      ],
      "stateMutability": "view",
      "type": "function"
    },
    {
      "inputs": [
        {
          "internalType": "address",
          "name": "spender",
          "type": "address"
        },
        {
          "internalType": "uint256",
          "name": "amount",
          "type": "uint256"
        }
      ],
      "name": "approve",
      "outputs": [
        {
          "internalType": "bool",
          "name": "",
          "type": "bool"
        }
      ],
      "stateMutability": "nonpayable",
      "type": "function"
    },
    {
      "inputs": [
        {
          "internalType": "address",
          "name": "account",
          "type": "address"
        }
      ],
      "name": "balanceOf",
      "outputs": [
        {
          "internalType": "uint256",
          "name": "",
          "type": "uint256"
        }
      ],
      "stateMutability": "view",
      "type": "function"
    },
    {
      "inputs": [
        {
          "internalType": "uint256",
          "name": "amount",
          "type": "uint256"
        }
      ],
      "name": "burn",
      "outputs": [],
      "stateMutability": "nonpayable",
      "type": "function"
    },
    {
      "inputs": [
        {
          "internalType": "address",
          "name": "account",
          "type": "address"
        },
        {
          "internalType": "uint256",
          "name": "amount",
          "type": "uint256"
        }
      ],
      "name": "burnFrom",
      "outputs": [],
      "stateMutability": "nonpayable",
      "type": "function"
    },
    {
      "inputs": [],
      "name": "decimals",
      "outputs": [
        {
          "internalType": "uint8",
          "name": "",
          "type": "uint8"
        }
      ],
      "stateMutability": "view",
      "type": "function"
    },
    {
      "inputs": [
        {
          "internalType": "address",
          "name": "spender",
          "type": "address"
        },
        {
          "internalType": "uint256",
          "name": "subtractedValue",
          "type": "uint256"
        }
      ],
      "name": "decreaseAllowance",
      "outputs": [
        {
          "internalType": "bool",
          "name": "",
          "type": "bool"
        }
      ],
      "stateMutability": "nonpayable",
      "type": "function"
    },
    {
      "inputs": [
        {
          "internalType": "uint16",
          "name": "",
          "type": "uint16"
        }
      ],
      "name": "elecciones",
      "outputs": [
        {
          "internalType": "uint16",
          "name": "idEleccion",
          "type": "uint16"
        },
        {
          "internalType": "string",
          "name": "fecha",
          "type": "string"
        },
        {
          "internalType": "bool",
          "name": "finished",
          "type": "bool"
        }
      ],
      "stateMutability": "view",
      "type": "function"
    },
    {
      "inputs": [
        {
          "internalType": "address",
          "name": "spender",
          "type": "address"
        },
        {
          "internalType": "uint256",
          "name": "addedValue",
          "type": "uint256"
        }
      ],
      "name": "increaseAllowance",
      "outputs": [
        {
          "internalType": "bool",
          "name": "",
          "type": "bool"
        }
      ],
      "stateMutability": "nonpayable",
      "type": "function"
    },
    {
      "inputs": [],
      "name": "name",
      "outputs": [
        {
          "internalType": "string",
          "name": "",
          "type": "string"
        }
      ],
      "stateMutability": "view",
      "type": "function"
    },
    {
      "inputs": [],
      "name": "symbol",
      "outputs": [
        {
          "internalType": "string",
          "name": "",
          "type": "string"
        }
      ],
      "stateMutability": "view",
      "type": "function"
    },
    {
      "inputs": [],
      "name": "totalSupply",
      "outputs": [
        {
          "internalType": "uint256",
          "name": "",
          "type": "uint256"
        }
      ],
      "stateMutability": "view",
      "type": "function"
    },
    {
      "inputs": [
        {
          "internalType": "address",
          "name": "to",
          "type": "address"
        },
        {
          "internalType": "uint256",
          "name": "amount",
          "type": "uint256"
        }
      ],
      "name": "transfer",
      "outputs": [
        {
          "internalType": "bool",
          "name": "",
          "type": "bool"
        }
      ],
      "stateMutability": "nonpayable",
      "type": "function"
    },
    {
      "inputs": [
        {
          "internalType": "address",
          "name": "from",
          "type": "address"
        },
        {
          "internalType": "address",
          "name": "to",
          "type": "address"
        },
        {
          "internalType": "uint256",
          "name": "amount",
          "type": "uint256"
        }
      ],
      "name": "transferFrom",
      "outputs": [
        {
          "internalType": "bool",
          "name": "",
          "type": "bool"
        }
      ],
      "stateMutability": "nonpayable",
      "type": "function"
    },
    {
      "inputs": [
        {
          "internalType": "uint16",
          "name": "_idEleccion",
          "type": "uint16"
        },
        {
          "internalType": "address",
          "name": "_lista",
          "type": "address"
        }
      ],
      "name": "sufragar",
      "outputs": [],
      "stateMutability": "nonpayable",
      "type": "function"
    },
    {
      "inputs": [
        {
          "internalType": "uint16",
          "name": "_idEleccion",
          "type": "uint16"
        },
        {
          "internalType": "address",
          "name": "_user",
          "type": "address"
        }
      ],
      "name": "haveVoteReceived",
      "outputs": [
        {
          "internalType": "bool",
          "name": "",
          "type": "bool"
        }
      ],
      "stateMutability": "view",
      "type": "function"
    },
    {
      "inputs": [
        {
          "internalType": "uint16",
          "name": "_idEleccion",
          "type": "uint16"
        },
        {
          "internalType": "string",
          "name": "_fecha",
          "type": "string"
        }
      ],
      "name": "agregarEleccion",
      "outputs": [],
      "stateMutability": "nonpayable",
      "type": "function"
    },
    {
      "inputs": [
        {
          "internalType": "uint16",
          "name": "_idEleccion",
          "type": "uint16"
        }
      ],
      "name": "finishEleccion",
      "outputs": [],
      "stateMutability": "nonpayable",
      "type": "function"
    }
  ],
  "bytecode": "0x60806040523480156200001157600080fd5b50604051620017853803806200178583398101604081905262000034916200023c565b6040518060400160405280601681526020017f42616c6c6f74204e75657661204573706572616e7a610000000000000000000081525060405180604001604052806003815260200162424e4560e81b81525081600390805190602001906200009e92919062000196565b508051620000b490600490602084019062000196565b505050620000c93382620000d060201b60201c565b50620002ba565b6001600160a01b0382166200012b5760405162461bcd60e51b815260206004820152601f60248201527f45524332303a206d696e7420746f20746865207a65726f206164647265737300604482015260640160405180910390fd5b80600260008282546200013f919062000256565b90915550506001600160a01b038216600081815260208181526040808320805486019055518481527fddf252ad1be2c89b69c2b068fc378daa952ba7f163c4a11628f55a4df523b3ef910160405180910390a35050565b828054620001a4906200027d565b90600052602060002090601f016020900481019282620001c8576000855562000213565b82601f10620001e357805160ff191683800117855562000213565b8280016001018555821562000213579182015b8281111562000213578251825591602001919060010190620001f6565b506200022192915062000225565b5090565b5b8082111562000221576000815560010162000226565b6000602082840312156200024f57600080fd5b5051919050565b600082198211156200027857634e487b7160e01b600052601160045260246000fd5b500190565b600181811c908216806200029257607f821691505b60208210811415620002b457634e487b7160e01b600052602260045260246000fd5b50919050565b6114bb80620002ca6000396000f3fe608060405234801561001057600080fd5b50600436106101155760003560e01c806347b5fe41116100a2578063a457c2d711610071578063a457c2d714610234578063a9059cbb14610247578063b51468b61461025a578063dd62ed3e1461029c578063fe86bb6e146102af57600080fd5b806347b5fe41146101dd57806370a08231146101f057806379cc67901461021957806395d89b411461022c57600080fd5b806323b872dd116100e957806323b872dd14610182578063313ce5671461019557806339509351146101a45780633c19f846146101b757806342966c68146101ca57600080fd5b806258fde01461011a57806306fdde031461012f578063095ea7b31461014d57806318160ddd14610170575b600080fd5b61012d61012836600461109c565b6102d1565b005b6101376106d0565b6040516101449190611127565b60405180910390f35b61016061015b366004611141565b610762565b6040519015158152602001610144565b6002545b604051908152602001610144565b61016061019036600461116b565b61077c565b60405160128152602001610144565b6101606101b2366004611141565b6107a0565b61012d6101c53660046111bd565b6107c2565b61012d6101d836600461127f565b6108f6565b61012d6101eb366004611298565b610903565b6101746101fe3660046112b3565b6001600160a01b031660009081526020819052604090205490565b61012d610227366004611141565b61096f565b610137610988565b610160610242366004611141565b610997565b610160610255366004611141565b610a12565b61016061026836600461109c565b61ffff821660009081526005602090815260408083206001600160a01b038516845260030190915290205460ff1692915050565b6101746102aa3660046112ce565b610a20565b6102c26102bd366004611298565b610a4b565b604051610144939291906112ea565b61ffff821660009081526005602052604090206001018054339184916102f690611319565b80601f016020809104026020016040519081016040528092919081815260200182805461032290611319565b801561036f5780601f106103445761010080835404028352916020019161036f565b820191906000526020600020905b81548152906001019060200180831161035257829003601f168201915b5050505061ffff83811660009081526005602052604090205416151590506103f85760405162461bcd60e51b815260206004820152603160248201527f4c6120656c656363696f6e2070617261207375667261676172206e6f20636f73604482015270746120656e20656c20726567697374726f60781b60648201526084015b60405180910390fd5b60065460005b818161ffff16116105455761ffff8416600090815260056020526040902060010180546104b3919061042f90611319565b80601f016020809104026020016040519081016040528092919081815260200182805461045b90611319565b80156104a85780601f1061047d576101008083540402835291602001916104a8565b820191906000526020600020905b81548152906001019060200180831161048b57829003601f168201915b505050505084610afe565b156105335761ffff841660009081526005602090815260408083206001600160a01b038916845260030190915290205460ff16156105335760405162461bcd60e51b815260206004820152601d60248201527f537520766f746f207961206861207369646f207265676973747261646f00000060448201526064016103ef565b8061053d8161136a565b9150506103fe565b5061ffff831660009081526005602090815260408083206001600160a01b038816845260030190915290205460ff16156105c15760405162461bcd60e51b815260206004820152601d60248201527f537520766f746f207961206861207369646f207265676973747261646f00000060448201526064016103ef565b61ffff83166000908152600560205260409020600281015460ff161561064f5760405162461bcd60e51b815260206004820152603b60248201527f456c2070726f6365736f20646520656c656363696f6e20612063756c6d696e6160448201527f646f2c206e6f207365206163657074616e206d617320766f746f73000000000060648201526084016103ef565b61ffff871660009081526005602090815260408083203380855260038201845293829020805460ff1916600190811790915582519485529284019290925290917f83de14ee31603435328f67c68f989ae54af4f27cb8be974d2002c529267ab5ac910160405180910390a16106c5876001610a12565b505050505050505050565b6060600380546106df90611319565b80601f016020809104026020016040519081016040528092919081815260200182805461070b90611319565b80156107585780601f1061072d57610100808354040283529160200191610758565b820191906000526020600020905b81548152906001019060200180831161073b57829003601f168201915b5050505050905090565b600033610770818585610b68565b60019150505b92915050565b60003361078a858285610c8d565b610795858585610d07565b506001949350505050565b6000336107708185856107b38383610a20565b6107bd919061138c565b610b68565b61ffff808316600090815260056020526040902054839116156108315760405162461bcd60e51b815260206004820152602160248201527f4c6120656c656363696f6e20686120696e7365727461722079612065786973746044820152606560f81b60648201526084016103ef565b61ffff83166000818152600560209081526040909120805461ffff1916909217825583516108659260010191850190610fd5565b5061ffff8316600081815260056020526040808220600201805460ff19169055600680546001810182559083527ff652222313e28459528d920b65115c16c04f3efc82aaedc97be59f3f377c0d3f019290925590517f44b146b4f066c1b5f282b183c12ef2a60251bc08bfa9b0337915f3cc21133126916108e991869186916112ea565b60405180910390a1505050565b6109003382610eab565b50565b61ffff8082166000908152600560205260409081902060028101805460ff191660019081179091558154925191937f44b146b4f066c1b5f282b183c12ef2a60251bc08bfa9b0337915f3cc211331269361096393911691808601916113a4565b60405180910390a15050565b61097a823383610c8d565b6109848282610eab565b5050565b6060600480546106df90611319565b600033816109a58286610a20565b905083811015610a055760405162461bcd60e51b815260206004820152602560248201527f45524332303a2064656372656173656420616c6c6f77616e63652062656c6f77604482015264207a65726f60d81b60648201526084016103ef565b6107958286868403610b68565b600033610770818585610d07565b6001600160a01b03918216600090815260016020908152604080832093909416825291909152205490565b6005602052600090815260409020805460018201805461ffff9092169291610a7290611319565b80601f0160208091040260200160405190810160405280929190818152602001828054610a9e90611319565b8015610aeb5780601f10610ac057610100808354040283529160200191610aeb565b820191906000526020600020905b815481529060010190602001808311610ace57829003601f168201915b5050506002909301549192505060ff1683565b60008151835114610b1157506000610776565b81604051602001610b229190611469565b6040516020818303038152906040528051906020012083604051602001610b499190611469565b6040516020818303038152906040528051906020012014905092915050565b6001600160a01b038316610bca5760405162461bcd60e51b8152602060048201526024808201527f45524332303a20617070726f76652066726f6d20746865207a65726f206164646044820152637265737360e01b60648201526084016103ef565b6001600160a01b038216610c2b5760405162461bcd60e51b815260206004820152602260248201527f45524332303a20617070726f766520746f20746865207a65726f206164647265604482015261737360f01b60648201526084016103ef565b6001600160a01b0383811660008181526001602090815260408083209487168084529482529182902085905590518481527f8c5be1e5ebec7d5bd14f71427d1e84f3dd0314c0f7b2291e5b200ac8c7c3b92591015b60405180910390a3505050565b6000610c998484610a20565b90506000198114610d015781811015610cf45760405162461bcd60e51b815260206004820152601d60248201527f45524332303a20696e73756666696369656e7420616c6c6f77616e636500000060448201526064016103ef565b610d018484848403610b68565b50505050565b6001600160a01b038316610d6b5760405162461bcd60e51b815260206004820152602560248201527f45524332303a207472616e736665722066726f6d20746865207a65726f206164604482015264647265737360d81b60648201526084016103ef565b6001600160a01b038216610dcd5760405162461bcd60e51b815260206004820152602360248201527f45524332303a207472616e7366657220746f20746865207a65726f206164647260448201526265737360e81b60648201526084016103ef565b6001600160a01b03831660009081526020819052604090205481811015610e455760405162461bcd60e51b815260206004820152602660248201527f45524332303a207472616e7366657220616d6f756e7420657863656564732062604482015265616c616e636560d01b60648201526084016103ef565b6001600160a01b03848116600081815260208181526040808320878703905593871680835291849020805487019055925185815290927fddf252ad1be2c89b69c2b068fc378daa952ba7f163c4a11628f55a4df523b3ef910160405180910390a3610d01565b6001600160a01b038216610f0b5760405162461bcd60e51b815260206004820152602160248201527f45524332303a206275726e2066726f6d20746865207a65726f206164647265736044820152607360f81b60648201526084016103ef565b6001600160a01b03821660009081526020819052604090205481811015610f7f5760405162461bcd60e51b815260206004820152602260248201527f45524332303a206275726e20616d6f756e7420657863656564732062616c616e604482015261636560f01b60648201526084016103ef565b6001600160a01b0383166000818152602081815260408083208686039055600280548790039055518581529192917fddf252ad1be2c89b69c2b068fc378daa952ba7f163c4a11628f55a4df523b3ef9101610c80565b828054610fe190611319565b90600052602060002090601f0160209004810192826110035760008555611049565b82601f1061101c57805160ff1916838001178555611049565b82800160010185558215611049579182015b8281111561104957825182559160200191906001019061102e565b50611055929150611059565b5090565b5b80821115611055576000815560010161105a565b803561ffff8116811461108057600080fd5b919050565b80356001600160a01b038116811461108057600080fd5b600080604083850312156110af57600080fd5b6110b88361106e565b91506110c660208401611085565b90509250929050565b60005b838110156110ea5781810151838201526020016110d2565b83811115610d015750506000910152565b600081518084526111138160208601602086016110cf565b601f01601f19169290920160200192915050565b60208152600061113a60208301846110fb565b9392505050565b6000806040838503121561115457600080fd5b61115d83611085565b946020939093013593505050565b60008060006060848603121561118057600080fd5b61118984611085565b925061119760208501611085565b9150604084013590509250925092565b634e487b7160e01b600052604160045260246000fd5b600080604083850312156111d057600080fd5b6111d98361106e565b9150602083013567ffffffffffffffff808211156111f657600080fd5b818501915085601f83011261120a57600080fd5b81358181111561121c5761121c6111a7565b604051601f8201601f19908116603f01168101908382118183101715611244576112446111a7565b8160405282815288602084870101111561125d57600080fd5b8260208601602083013760006020848301015280955050505050509250929050565b60006020828403121561129157600080fd5b5035919050565b6000602082840312156112aa57600080fd5b61113a8261106e565b6000602082840312156112c557600080fd5b61113a82611085565b600080604083850312156112e157600080fd5b6110b883611085565b61ffff8416815260606020820152600061130760608301856110fb565b90508215156040830152949350505050565b600181811c9082168061132d57607f821691505b6020821081141561134e57634e487b7160e01b600052602260045260246000fd5b50919050565b634e487b7160e01b600052601160045260246000fd5b600061ffff8083168181141561138257611382611354565b6001019392505050565b6000821982111561139f5761139f611354565b500190565b61ffff84168152600060206060818401526000855481600182811c9150808316806113d057607f831692505b8583108114156113ee57634e487b7160e01b85526022600452602485fd5b606088018390526080880181801561140d576001811461141e57611449565b60ff19861682528782019650611449565b60008c81526020902060005b868110156114435781548482015290850190890161142a565b83019750505b50505050861515604087015250909250611461915050565b949350505050565b6000825161147b8184602087016110cf565b919091019291505056fea2646970667358221220132d73c4a10d53f1a808b6e6afe0ad3de5e11df2c481bc138ec546b90f0c265364736f6c634300080c0033",
  "immutableReferences": {},
  "source": "// SPDX-License-Identifier: MIT\npragma solidity >=0.4.22 <0.9.0;\n\nimport \"@openzeppelin/contracts/token/ERC20/ERC20.sol\";\nimport \"@openzeppelin/contracts/token/ERC20/extensions/ERC20Burnable.sol\";\n\ncontract VoteToken is ERC20, ERC20Burnable{\n\n    struct Eleccion {\n        uint16 idEleccion;\n        string fecha;\n        bool finished;\n        mapping (address => bool) votosReceived;\n    }\n    \n    event EleccionData (\n        uint16 _idEleccion,\n        string _fecha,\n        bool _finished\n    );\n\n    event VoterData(address _wallet, bool voted);\n\n    mapping (uint16 => Eleccion) public elecciones;\n    uint256[] eleccionesRegistradas;\n\n    constructor(uint256 initialSupply) ERC20 (\"Ballot Nueva Esperanza\", \"BNE\"){\n        _mint(msg.sender, initialSupply);\n    }\n\n    modifier duplicateEleccion (uint16 _idEleccion){\n        require (\n            elecciones[_idEleccion].idEleccion == 0,     \n            'La eleccion ha insertar ya existe');\n        _;\n    }\n\n\n    modifier validateBallot(address _wallet, uint16 _idEleccion, string memory _fecha) {\n        require (\n            elecciones[_idEleccion].idEleccion != 0,     \n            'La eleccion para sufragar no costa en el registro');\n\n        uint256 tamanio = eleccionesRegistradas.length;\n\n        for(uint16 i = 0; i <= tamanio; i++){\n            if(compareStrings(elecciones[_idEleccion].fecha,_fecha)){\n                require (\n                !elecciones[_idEleccion].votosReceived[_wallet], \n                'Su voto ya ha sido registrado');\n            }\n        }\n\n        require (\n            !elecciones[_idEleccion].votosReceived[_wallet], \n            'Su voto ya ha sido registrado');\n        \n        Eleccion storage election = elecciones[_idEleccion];\n        require(\n            !election.finished,\n            'El proceso de eleccion a culminado, no se aceptan mas votos'\n        );  \n        _;\n    }\n    \n    function sufragar (uint16 _idEleccion, address _lista) \n        public validateBallot(msg.sender, _idEleccion, elecciones[_idEleccion].fecha)\n    {\n        Eleccion storage eleccion = elecciones[_idEleccion];\n        eleccion.votosReceived[msg.sender] = true;\n        emit VoterData(msg.sender, elecciones[_idEleccion].votosReceived[msg.sender]);\n        transfer(_lista, 1);\n    }\n\n    function haveVoteReceived (uint16 _idEleccion, address _user) \n    public view returns (bool){\n        return elecciones[_idEleccion].votosReceived[_user];\n    }\n\n    function agregarEleccion (uint16 _idEleccion, string memory _fecha) \n    public duplicateEleccion(_idEleccion){\n        elecciones[_idEleccion].idEleccion = _idEleccion;\n        elecciones[_idEleccion].fecha = _fecha;\n        elecciones[_idEleccion].finished = false;        \n        eleccionesRegistradas.push(_idEleccion);\n        emit EleccionData(_idEleccion, _fecha, false);\n    }\n\n    function compareStrings(string memory a, string memory b) private pure returns (bool) {\n        if (bytes(a).length != bytes(b).length) {\n            return false;\n        }\n        return keccak256(abi.encodePacked(a)) == keccak256(abi.encodePacked(b));\n    }\n\n    function finishEleccion (uint16 _idEleccion) public {\n        Eleccion storage eleccion = elecciones[_idEleccion];\n        eleccion.finished = true;\n\n        emit EleccionData(eleccion.idEleccion, eleccion.fecha, eleccion.finished);\n    }\n}\n",
  "sourcePath": "/home/ayrton14/node-js-projects/prototipo-votaciones-dapp/contracts/VoteToken.sol",
  "compiler": {
    "name": "solc",
    "version": "0.8.12+commit.f00d7308.Emscripten.clang"
  },
  "schemaVersion": "3.4.6",
  "updatedAt": "2023-01-02T21:03:48.777Z",
  "devdoc": {
    "kind": "dev",
    "methods": {
      "allowance(address,address)": {
        "details": "See {IERC20-allowance}."
      },
      "approve(address,uint256)": {
        "details": "See {IERC20-approve}. NOTE: If `amount` is the maximum `uint256`, the allowance is not updated on `transferFrom`. This is semantically equivalent to an infinite approval. Requirements: - `spender` cannot be the zero address."
      },
      "balanceOf(address)": {
        "details": "See {IERC20-balanceOf}."
      },
      "burn(uint256)": {
        "details": "Destroys `amount` tokens from the caller. See {ERC20-_burn}."
      },
      "burnFrom(address,uint256)": {
        "details": "Destroys `amount` tokens from `account`, deducting from the caller's allowance. See {ERC20-_burn} and {ERC20-allowance}. Requirements: - the caller must have allowance for ``accounts``'s tokens of at least `amount`."
      },
      "decimals()": {
        "details": "Returns the number of decimals used to get its user representation. For example, if `decimals` equals `2`, a balance of `505` tokens should be displayed to a user as `5.05` (`505 / 10 ** 2`). Tokens usually opt for a value of 18, imitating the relationship between Ether and Wei. This is the value {ERC20} uses, unless this function is overridden; NOTE: This information is only used for _display_ purposes: it in no way affects any of the arithmetic of the contract, including {IERC20-balanceOf} and {IERC20-transfer}."
      },
      "decreaseAllowance(address,uint256)": {
        "details": "Atomically decreases the allowance granted to `spender` by the caller. This is an alternative to {approve} that can be used as a mitigation for problems described in {IERC20-approve}. Emits an {Approval} event indicating the updated allowance. Requirements: - `spender` cannot be the zero address. - `spender` must have allowance for the caller of at least `subtractedValue`."
      },
      "increaseAllowance(address,uint256)": {
        "details": "Atomically increases the allowance granted to `spender` by the caller. This is an alternative to {approve} that can be used as a mitigation for problems described in {IERC20-approve}. Emits an {Approval} event indicating the updated allowance. Requirements: - `spender` cannot be the zero address."
      },
      "name()": {
        "details": "Returns the name of the token."
      },
      "symbol()": {
        "details": "Returns the symbol of the token, usually a shorter version of the name."
      },
      "totalSupply()": {
        "details": "See {IERC20-totalSupply}."
      },
      "transfer(address,uint256)": {
        "details": "See {IERC20-transfer}. Requirements: - `to` cannot be the zero address. - the caller must have a balance of at least `amount`."
      },
      "transferFrom(address,address,uint256)": {
        "details": "See {IERC20-transferFrom}. Emits an {Approval} event indicating the updated allowance. This is not required by the EIP. See the note at the beginning of {ERC20}. NOTE: Does not update the allowance if the current allowance is the maximum `uint256`. Requirements: - `from` and `to` cannot be the zero address. - `from` must have a balance of at least `amount`. - the caller must have allowance for ``from``'s tokens of at least `amount`."
      }
    },
    "version": 1
  },
  "userdoc": {
    "kind": "user",
    "methods": {},
    "version": 1
  }
}