{
  "contractName": "VoteToken",
  "abi": [
    {
      "inputs": [
        {
          "internalType": "uint256",
          "name": "initialSupply",
          "type": "uint256"
        }
      ],
      "stateMutability": "nonpayable",
      "type": "constructor"
    },
    {
      "anonymous": false,
      "inputs": [
        {
          "indexed": true,
          "internalType": "address",
          "name": "owner",
          "type": "address"
        },
        {
          "indexed": true,
          "internalType": "address",
          "name": "spender",
          "type": "address"
        },
        {
          "indexed": false,
          "internalType": "uint256",
          "name": "value",
          "type": "uint256"
        }
      ],
      "name": "Approval",
      "type": "event"
    },
    {
      "anonymous": false,
      "inputs": [
        {
          "indexed": false,
          "internalType": "uint16",
          "name": "_idEleccion",
          "type": "uint16"
        },
        {
          "indexed": false,
          "internalType": "string",
          "name": "_fecha",
          "type": "string"
        },
        {
          "indexed": false,
          "internalType": "bool",
          "name": "_finished",
          "type": "bool"
        }
      ],
      "name": "EleccionData",
      "type": "event"
    },
    {
      "anonymous": false,
      "inputs": [
        {
          "indexed": true,
          "internalType": "address",
          "name": "from",
          "type": "address"
        },
        {
          "indexed": true,
          "internalType": "address",
          "name": "to",
          "type": "address"
        },
        {
          "indexed": false,
          "internalType": "uint256",
          "name": "value",
          "type": "uint256"
        }
      ],
      "name": "Transfer",
      "type": "event"
    },
    {
      "anonymous": false,
      "inputs": [
        {
          "indexed": false,
          "internalType": "address",
          "name": "_wallet",
          "type": "address"
        },
        {
          "indexed": false,
          "internalType": "bool",
          "name": "voted",
          "type": "bool"
        }
      ],
      "name": "VoterData",
      "type": "event"
    },
    {
      "inputs": [
        {
          "internalType": "address",
          "name": "owner",
          "type": "address"
        },
        {
          "internalType": "address",
          "name": "spender",
          "type": "address"
        }
      ],
      "name": "allowance",
      "outputs": [
        {
          "internalType": "uint256",
          "name": "",
          "type": "uint256"
        }
      ],
      "stateMutability": "view",
      "type": "function"
    },
    {
      "inputs": [
        {
          "internalType": "address",
          "name": "spender",
          "type": "address"
        },
        {
          "internalType": "uint256",
          "name": "amount",
          "type": "uint256"
        }
      ],
      "name": "approve",
      "outputs": [
        {
          "internalType": "bool",
          "name": "",
          "type": "bool"
        }
      ],
      "stateMutability": "nonpayable",
      "type": "function"
    },
    {
      "inputs": [
        {
          "internalType": "address",
          "name": "account",
          "type": "address"
        }
      ],
      "name": "balanceOf",
      "outputs": [
        {
          "internalType": "uint256",
          "name": "",
          "type": "uint256"
        }
      ],
      "stateMutability": "view",
      "type": "function"
    },
    {
      "inputs": [
        {
          "internalType": "uint256",
          "name": "amount",
          "type": "uint256"
        }
      ],
      "name": "burn",
      "outputs": [],
      "stateMutability": "nonpayable",
      "type": "function"
    },
    {
      "inputs": [
        {
          "internalType": "address",
          "name": "account",
          "type": "address"
        },
        {
          "internalType": "uint256",
          "name": "amount",
          "type": "uint256"
        }
      ],
      "name": "burnFrom",
      "outputs": [],
      "stateMutability": "nonpayable",
      "type": "function"
    },
    {
      "inputs": [],
      "name": "decimals",
      "outputs": [
        {
          "internalType": "uint8",
          "name": "",
          "type": "uint8"
        }
      ],
      "stateMutability": "view",
      "type": "function"
    },
    {
      "inputs": [
        {
          "internalType": "address",
          "name": "spender",
          "type": "address"
        },
        {
          "internalType": "uint256",
          "name": "subtractedValue",
          "type": "uint256"
        }
      ],
      "name": "decreaseAllowance",
      "outputs": [
        {
          "internalType": "bool",
          "name": "",
          "type": "bool"
        }
      ],
      "stateMutability": "nonpayable",
      "type": "function"
    },
    {
      "inputs": [
        {
          "internalType": "uint16",
          "name": "",
          "type": "uint16"
        }
      ],
      "name": "elecciones",
      "outputs": [
        {
          "internalType": "uint16",
          "name": "idEleccion",
          "type": "uint16"
        },
        {
          "internalType": "string",
          "name": "fecha",
          "type": "string"
        },
        {
          "internalType": "bool",
          "name": "finished",
          "type": "bool"
        }
      ],
      "stateMutability": "view",
      "type": "function"
    },
    {
      "inputs": [
        {
          "internalType": "address",
          "name": "spender",
          "type": "address"
        },
        {
          "internalType": "uint256",
          "name": "addedValue",
          "type": "uint256"
        }
      ],
      "name": "increaseAllowance",
      "outputs": [
        {
          "internalType": "bool",
          "name": "",
          "type": "bool"
        }
      ],
      "stateMutability": "nonpayable",
      "type": "function"
    },
    {
      "inputs": [],
      "name": "name",
      "outputs": [
        {
          "internalType": "string",
          "name": "",
          "type": "string"
        }
      ],
      "stateMutability": "view",
      "type": "function"
    },
    {
      "inputs": [],
      "name": "symbol",
      "outputs": [
        {
          "internalType": "string",
          "name": "",
          "type": "string"
        }
      ],
      "stateMutability": "view",
      "type": "function"
    },
    {
      "inputs": [],
      "name": "totalSupply",
      "outputs": [
        {
          "internalType": "uint256",
          "name": "",
          "type": "uint256"
        }
      ],
      "stateMutability": "view",
      "type": "function"
    },
    {
      "inputs": [
        {
          "internalType": "address",
          "name": "to",
          "type": "address"
        },
        {
          "internalType": "uint256",
          "name": "amount",
          "type": "uint256"
        }
      ],
      "name": "transfer",
      "outputs": [
        {
          "internalType": "bool",
          "name": "",
          "type": "bool"
        }
      ],
      "stateMutability": "nonpayable",
      "type": "function"
    },
    {
      "inputs": [
        {
          "internalType": "address",
          "name": "from",
          "type": "address"
        },
        {
          "internalType": "address",
          "name": "to",
          "type": "address"
        },
        {
          "internalType": "uint256",
          "name": "amount",
          "type": "uint256"
        }
      ],
      "name": "transferFrom",
      "outputs": [
        {
          "internalType": "bool",
          "name": "",
          "type": "bool"
        }
      ],
      "stateMutability": "nonpayable",
      "type": "function"
    },
    {
      "inputs": [
        {
          "internalType": "uint16",
          "name": "_idEleccion",
          "type": "uint16"
        },
        {
          "internalType": "address",
          "name": "_lista",
          "type": "address"
        }
      ],
      "name": "sufragar",
      "outputs": [],
      "stateMutability": "nonpayable",
      "type": "function"
    },
    {
      "inputs": [
        {
          "internalType": "uint16",
          "name": "_idEleccion",
          "type": "uint16"
        },
        {
          "internalType": "address",
          "name": "_user",
          "type": "address"
        }
      ],
      "name": "haveVoteReceived",
      "outputs": [
        {
          "internalType": "bool",
          "name": "",
          "type": "bool"
        }
      ],
      "stateMutability": "view",
      "type": "function"
    },
    {
      "inputs": [
        {
          "internalType": "uint16",
          "name": "_idEleccion",
          "type": "uint16"
        },
        {
          "internalType": "string",
          "name": "_fecha",
          "type": "string"
        }
      ],
      "name": "agregarEleccion",
      "outputs": [],
      "stateMutability": "nonpayable",
      "type": "function"
    },
    {
      "inputs": [
        {
          "internalType": "uint16",
          "name": "_idEleccion",
          "type": "uint16"
        }
      ],
      "name": "finishEleccion",
      "outputs": [],
      "stateMutability": "nonpayable",
      "type": "function"
    }
  ],
  "bytecode": "0x60806040523480156200001157600080fd5b506040516200157d3803806200157d83398101604081905262000034916200023c565b6040518060400160405280601681526020017f42616c6c6f74204e75657661204573706572616e7a610000000000000000000081525060405180604001604052806003815260200162424e4560e81b81525081600390805190602001906200009e92919062000196565b508051620000b490600490602084019062000196565b505050620000c93382620000d060201b60201c565b50620002ba565b6001600160a01b0382166200012b5760405162461bcd60e51b815260206004820152601f60248201527f45524332303a206d696e7420746f20746865207a65726f206164647265737300604482015260640160405180910390fd5b80600260008282546200013f919062000256565b90915550506001600160a01b038216600081815260208181526040808320805486019055518481527fddf252ad1be2c89b69c2b068fc378daa952ba7f163c4a11628f55a4df523b3ef910160405180910390a35050565b828054620001a4906200027d565b90600052602060002090601f016020900481019282620001c8576000855562000213565b82601f10620001e357805160ff191683800117855562000213565b8280016001018555821562000213579182015b8281111562000213578251825591602001919060010190620001f6565b506200022192915062000225565b5090565b5b8082111562000221576000815560010162000226565b6000602082840312156200024f57600080fd5b5051919050565b600082198211156200027857634e487b7160e01b600052601160045260246000fd5b500190565b600181811c908216806200029257607f821691505b60208210811415620002b457634e487b7160e01b600052602260045260246000fd5b50919050565b6112b380620002ca6000396000f3fe608060405234801561001057600080fd5b50600436106101155760003560e01c806347b5fe41116100a2578063a457c2d711610071578063a457c2d714610234578063a9059cbb14610247578063b51468b61461025a578063dd62ed3e1461029c578063fe86bb6e146102af57600080fd5b806347b5fe41146101dd57806370a08231146101f057806379cc67901461021957806395d89b411461022c57600080fd5b806323b872dd116100e957806323b872dd14610182578063313ce5671461019557806339509351146101a45780633c19f846146101b757806342966c68146101ca57600080fd5b806258fde01461011a57806306fdde031461012f578063095ea7b31461014d57806318160ddd14610170575b600080fd5b61012d610128366004610ee5565b6102d1565b005b610137610585565b6040516101449190610f65565b60405180910390f35b61016061015b366004610f7f565b610617565b6040519015158152602001610144565b6002545b604051908152602001610144565b610160610190366004610fa9565b61062f565b60405160128152602001610144565b6101606101b2366004610f7f565b610653565b61012d6101c5366004610ffb565b610675565b61012d6101d83660046110bd565b6107a9565b61012d6101eb3660046110d6565b6107b6565b6101746101fe3660046110f1565b6001600160a01b031660009081526020819052604090205490565b61012d610227366004610f7f565b610822565b61013761083b565b610160610242366004610f7f565b61084a565b610160610255366004610f7f565b6108c5565b610160610268366004610ee5565b61ffff821660009081526005602090815260408083206001600160a01b038516845260030190915290205460ff1692915050565b6101746102aa36600461110c565b6108d3565b6102c26102bd3660046110d6565b6108fe565b60405161014493929190611128565b61ffff821660009081526005602052604090206001018054339184916102f690611157565b80601f016020809104026020016040519081016040528092919081815260200182805461032290611157565b801561036f5780601f106103445761010080835404028352916020019161036f565b820191906000526020600020905b81548152906001019060200180831161035257829003601f168201915b5050505061ffff83811660009081526005602052604090205416151590506103f85760405162461bcd60e51b815260206004820152603160248201527f4c6120656c656363696f6e2070617261207375667261676172206e6f20636f73604482015270746120656e20656c20726567697374726f60781b60648201526084015b60405180910390fd5b60065461ffff831660009081526005602090815260408083206001600160a01b038816845260030190915290205460ff16156104765760405162461bcd60e51b815260206004820152601d60248201527f537520766f746f207961206861207369646f207265676973747261646f00000060448201526064016103ef565b61ffff83166000908152600560205260409020600281015460ff16156105045760405162461bcd60e51b815260206004820152603b60248201527f456c2070726f6365736f20646520656c656363696f6e20612063756c6d696e6160448201527f646f2c206e6f207365206163657074616e206d617320766f746f73000000000060648201526084016103ef565b61ffff871660009081526005602090815260408083203380855260038201845293829020805460ff1916600190811790915582519485529284019290925290917f83de14ee31603435328f67c68f989ae54af4f27cb8be974d2002c529267ab5ac910160405180910390a161057a8760016108c5565b505050505050505050565b60606003805461059490611157565b80601f01602080910402602001604051908101604052809291908181526020018280546105c090611157565b801561060d5780601f106105e25761010080835404028352916020019161060d565b820191906000526020600020905b8154815290600101906020018083116105f057829003601f168201915b5050505050905090565b6000336106258185856109b1565b5060019392505050565b60003361063d858285610ad6565b610648858585610b50565b506001949350505050565b60003361062581858561066683836108d3565b6106709190611192565b6109b1565b61ffff808316600090815260056020526040902054839116156106e45760405162461bcd60e51b815260206004820152602160248201527f4c6120656c656363696f6e20686120696e7365727461722079612065786973746044820152606560f81b60648201526084016103ef565b61ffff83166000818152600560209081526040909120805461ffff1916909217825583516107189260010191850190610e1e565b5061ffff8316600081815260056020526040808220600201805460ff19169055600680546001810182559083527ff652222313e28459528d920b65115c16c04f3efc82aaedc97be59f3f377c0d3f019290925590517f44b146b4f066c1b5f282b183c12ef2a60251bc08bfa9b0337915f3cc211331269161079c9186918691611128565b60405180910390a1505050565b6107b33382610cf4565b50565b61ffff8082166000908152600560205260409081902060028101805460ff191660019081179091558154925191937f44b146b4f066c1b5f282b183c12ef2a60251bc08bfa9b0337915f3cc211331269361081693911691808601916111b8565b60405180910390a15050565b61082d823383610ad6565b6108378282610cf4565b5050565b60606004805461059490611157565b6000338161085882866108d3565b9050838110156108b85760405162461bcd60e51b815260206004820152602560248201527f45524332303a2064656372656173656420616c6c6f77616e63652062656c6f77604482015264207a65726f60d81b60648201526084016103ef565b61064882868684036109b1565b600033610625818585610b50565b6001600160a01b03918216600090815260016020908152604080832093909416825291909152205490565b6005602052600090815260409020805460018201805461ffff909216929161092590611157565b80601f016020809104026020016040519081016040528092919081815260200182805461095190611157565b801561099e5780601f106109735761010080835404028352916020019161099e565b820191906000526020600020905b81548152906001019060200180831161098157829003601f168201915b5050506002909301549192505060ff1683565b6001600160a01b038316610a135760405162461bcd60e51b8152602060048201526024808201527f45524332303a20617070726f76652066726f6d20746865207a65726f206164646044820152637265737360e01b60648201526084016103ef565b6001600160a01b038216610a745760405162461bcd60e51b815260206004820152602260248201527f45524332303a20617070726f766520746f20746865207a65726f206164647265604482015261737360f01b60648201526084016103ef565b6001600160a01b0383811660008181526001602090815260408083209487168084529482529182902085905590518481527f8c5be1e5ebec7d5bd14f71427d1e84f3dd0314c0f7b2291e5b200ac8c7c3b92591015b60405180910390a3505050565b6000610ae284846108d3565b90506000198114610b4a5781811015610b3d5760405162461bcd60e51b815260206004820152601d60248201527f45524332303a20696e73756666696369656e7420616c6c6f77616e636500000060448201526064016103ef565b610b4a84848484036109b1565b50505050565b6001600160a01b038316610bb45760405162461bcd60e51b815260206004820152602560248201527f45524332303a207472616e736665722066726f6d20746865207a65726f206164604482015264647265737360d81b60648201526084016103ef565b6001600160a01b038216610c165760405162461bcd60e51b815260206004820152602360248201527f45524332303a207472616e7366657220746f20746865207a65726f206164647260448201526265737360e81b60648201526084016103ef565b6001600160a01b03831660009081526020819052604090205481811015610c8e5760405162461bcd60e51b815260206004820152602660248201527f45524332303a207472616e7366657220616d6f756e7420657863656564732062604482015265616c616e636560d01b60648201526084016103ef565b6001600160a01b03848116600081815260208181526040808320878703905593871680835291849020805487019055925185815290927fddf252ad1be2c89b69c2b068fc378daa952ba7f163c4a11628f55a4df523b3ef910160405180910390a3610b4a565b6001600160a01b038216610d545760405162461bcd60e51b815260206004820152602160248201527f45524332303a206275726e2066726f6d20746865207a65726f206164647265736044820152607360f81b60648201526084016103ef565b6001600160a01b03821660009081526020819052604090205481811015610dc85760405162461bcd60e51b815260206004820152602260248201527f45524332303a206275726e20616d6f756e7420657863656564732062616c616e604482015261636560f01b60648201526084016103ef565b6001600160a01b0383166000818152602081815260408083208686039055600280548790039055518581529192917fddf252ad1be2c89b69c2b068fc378daa952ba7f163c4a11628f55a4df523b3ef9101610ac9565b828054610e2a90611157565b90600052602060002090601f016020900481019282610e4c5760008555610e92565b82601f10610e6557805160ff1916838001178555610e92565b82800160010185558215610e92579182015b82811115610e92578251825591602001919060010190610e77565b50610e9e929150610ea2565b5090565b5b80821115610e9e5760008155600101610ea3565b803561ffff81168114610ec957600080fd5b919050565b80356001600160a01b0381168114610ec957600080fd5b60008060408385031215610ef857600080fd5b610f0183610eb7565b9150610f0f60208401610ece565b90509250929050565b6000815180845260005b81811015610f3e57602081850181015186830182015201610f22565b81811115610f50576000602083870101525b50601f01601f19169290920160200192915050565b602081526000610f786020830184610f18565b9392505050565b60008060408385031215610f9257600080fd5b610f9b83610ece565b946020939093013593505050565b600080600060608486031215610fbe57600080fd5b610fc784610ece565b9250610fd560208501610ece565b9150604084013590509250925092565b634e487b7160e01b600052604160045260246000fd5b6000806040838503121561100e57600080fd5b61101783610eb7565b9150602083013567ffffffffffffffff8082111561103457600080fd5b818501915085601f83011261104857600080fd5b81358181111561105a5761105a610fe5565b604051601f8201601f19908116603f0116810190838211818310171561108257611082610fe5565b8160405282815288602084870101111561109b57600080fd5b8260208601602083013760006020848301015280955050505050509250929050565b6000602082840312156110cf57600080fd5b5035919050565b6000602082840312156110e857600080fd5b610f7882610eb7565b60006020828403121561110357600080fd5b610f7882610ece565b6000806040838503121561111f57600080fd5b610f0183610ece565b61ffff841681526060602082015260006111456060830185610f18565b90508215156040830152949350505050565b600181811c9082168061116b57607f821691505b6020821081141561118c57634e487b7160e01b600052602260045260246000fd5b50919050565b600082198211156111b357634e487b7160e01b600052601160045260246000fd5b500190565b61ffff84168152600060206060818401526000855481600182811c9150808316806111e457607f831692505b85831081141561120257634e487b7160e01b85526022600452602485fd5b606088018390526080880181801561122157600181146112325761125d565b60ff1986168252878201965061125d565b60008c81526020902060005b868110156112575781548482015290850190890161123e565b83019750505b50505050861515604087015250909250611275915050565b94935050505056fea2646970667358221220d2ba0daa6b112b6674761c475b2fa1455859557012c9ea5bb35f485fe76388fc64736f6c634300080c0033",
  "immutableReferences": {},
  "source": "// SPDX-License-Identifier: MIT\npragma solidity >=0.4.22 <0.9.0;\n\nimport \"@openzeppelin/contracts/token/ERC20/ERC20.sol\";\nimport \"@openzeppelin/contracts/token/ERC20/extensions/ERC20Burnable.sol\";\n\ncontract VoteToken is ERC20, ERC20Burnable{\n\n    struct Eleccion {\n        uint16 idEleccion;\n        string fecha;\n        bool finished;\n        mapping (address => bool) votosReceived;\n    }\n    \n    event EleccionData (\n        uint16 _idEleccion,\n        string _fecha,\n        bool _finished\n    );\n\n    event VoterData(address _wallet, bool voted);\n\n    mapping (uint16 => Eleccion) public elecciones;\n    uint256[] eleccionesRegistradas;\n\n    constructor(uint256 initialSupply) ERC20 (\"Ballot Nueva Esperanza\", \"BNE\"){\n        _mint(msg.sender, initialSupply);\n    }\n\n    modifier duplicateEleccion (uint16 _idEleccion){\n        require (\n            elecciones[_idEleccion].idEleccion == 0,     \n            'La eleccion ha insertar ya existe');\n        _;\n    }\n\n\n    modifier validateBallot(address _wallet, uint16 _idEleccion, string memory _fecha) {\n        require (\n            elecciones[_idEleccion].idEleccion != 0,     \n            'La eleccion para sufragar no costa en el registro');\n\n        uint256 tamanio = eleccionesRegistradas.length;\n\n        require (\n            !elecciones[_idEleccion].votosReceived[_wallet], \n            'Su voto ya ha sido registrado');\n        \n        Eleccion storage election = elecciones[_idEleccion];\n        require(\n            !election.finished,\n            'El proceso de eleccion a culminado, no se aceptan mas votos'\n        );  \n        _;\n    }\n    \n    function sufragar (uint16 _idEleccion, address _lista) \n        public validateBallot(msg.sender, _idEleccion, elecciones[_idEleccion].fecha)\n    {\n        Eleccion storage eleccion = elecciones[_idEleccion];\n        eleccion.votosReceived[msg.sender] = true;\n        emit VoterData(msg.sender, elecciones[_idEleccion].votosReceived[msg.sender]);\n        transfer(_lista, 1);\n    }\n\n    function haveVoteReceived (uint16 _idEleccion, address _user) \n    public view returns (bool){\n        return elecciones[_idEleccion].votosReceived[_user];\n    }\n\n    function agregarEleccion (uint16 _idEleccion, string memory _fecha) \n    public duplicateEleccion(_idEleccion){\n        elecciones[_idEleccion].idEleccion = _idEleccion;\n        elecciones[_idEleccion].fecha = _fecha;\n        elecciones[_idEleccion].finished = false;        \n        eleccionesRegistradas.push(_idEleccion);\n        emit EleccionData(_idEleccion, _fecha, false);\n    }\n\n    function finishEleccion (uint16 _idEleccion) public {\n        Eleccion storage eleccion = elecciones[_idEleccion];\n        eleccion.finished = true;\n\n        emit EleccionData(eleccion.idEleccion, eleccion.fecha, eleccion.finished);\n    }\n}\n",
  "sourcePath": "/home/ayrton14/node-js-projects/prototipo-votaciones-dapp/contracts/VoteToken.sol",
  "compiler": {
    "name": "solc",
    "version": "0.8.12+commit.f00d7308.Emscripten.clang"
  },
  "schemaVersion": "3.4.6",
  "updatedAt": "2023-01-06T15:53:42.856Z",
  "devdoc": {
    "kind": "dev",
    "methods": {
      "allowance(address,address)": {
        "details": "See {IERC20-allowance}."
      },
      "approve(address,uint256)": {
        "details": "See {IERC20-approve}. NOTE: If `amount` is the maximum `uint256`, the allowance is not updated on `transferFrom`. This is semantically equivalent to an infinite approval. Requirements: - `spender` cannot be the zero address."
      },
      "balanceOf(address)": {
        "details": "See {IERC20-balanceOf}."
      },
      "burn(uint256)": {
        "details": "Destroys `amount` tokens from the caller. See {ERC20-_burn}."
      },
      "burnFrom(address,uint256)": {
        "details": "Destroys `amount` tokens from `account`, deducting from the caller's allowance. See {ERC20-_burn} and {ERC20-allowance}. Requirements: - the caller must have allowance for ``accounts``'s tokens of at least `amount`."
      },
      "decimals()": {
        "details": "Returns the number of decimals used to get its user representation. For example, if `decimals` equals `2`, a balance of `505` tokens should be displayed to a user as `5.05` (`505 / 10 ** 2`). Tokens usually opt for a value of 18, imitating the relationship between Ether and Wei. This is the value {ERC20} uses, unless this function is overridden; NOTE: This information is only used for _display_ purposes: it in no way affects any of the arithmetic of the contract, including {IERC20-balanceOf} and {IERC20-transfer}."
      },
      "decreaseAllowance(address,uint256)": {
        "details": "Atomically decreases the allowance granted to `spender` by the caller. This is an alternative to {approve} that can be used as a mitigation for problems described in {IERC20-approve}. Emits an {Approval} event indicating the updated allowance. Requirements: - `spender` cannot be the zero address. - `spender` must have allowance for the caller of at least `subtractedValue`."
      },
      "increaseAllowance(address,uint256)": {
        "details": "Atomically increases the allowance granted to `spender` by the caller. This is an alternative to {approve} that can be used as a mitigation for problems described in {IERC20-approve}. Emits an {Approval} event indicating the updated allowance. Requirements: - `spender` cannot be the zero address."
      },
      "name()": {
        "details": "Returns the name of the token."
      },
      "symbol()": {
        "details": "Returns the symbol of the token, usually a shorter version of the name."
      },
      "totalSupply()": {
        "details": "See {IERC20-totalSupply}."
      },
      "transfer(address,uint256)": {
        "details": "See {IERC20-transfer}. Requirements: - `to` cannot be the zero address. - the caller must have a balance of at least `amount`."
      },
      "transferFrom(address,address,uint256)": {
        "details": "See {IERC20-transferFrom}. Emits an {Approval} event indicating the updated allowance. This is not required by the EIP. See the note at the beginning of {ERC20}. NOTE: Does not update the allowance if the current allowance is the maximum `uint256`. Requirements: - `from` and `to` cannot be the zero address. - `from` must have a balance of at least `amount`. - the caller must have allowance for ``from``'s tokens of at least `amount`."
      }
    },
    "version": 1
  },
  "userdoc": {
    "kind": "user",
    "methods": {},
    "version": 1
  }
}